{
  "contractName": "MarriageContract",
  "abi": [
    {
      "inputs": [
        {
          "internalType": "address",
          "name": "_spouse1",
          "type": "address"
        },
        {
          "internalType": "address",
          "name": "_spouse2",
          "type": "address"
        }
      ],
      "stateMutability": "nonpayable",
      "type": "constructor"
    },
    {
      "inputs": [],
      "name": "married",
      "outputs": [
        {
          "internalType": "bool",
          "name": "",
          "type": "bool"
        }
      ],
      "stateMutability": "view",
      "type": "function",
      "constant": true
    },
    {
      "inputs": [],
      "name": "spouse1",
      "outputs": [
        {
          "internalType": "address",
          "name": "",
          "type": "address"
        }
      ],
      "stateMutability": "view",
      "type": "function",
      "constant": true
    },
    {
      "inputs": [],
      "name": "spouse2",
      "outputs": [
        {
          "internalType": "address",
          "name": "",
          "type": "address"
        }
      ],
      "stateMutability": "view",
      "type": "function",
      "constant": true
    },
    {
      "inputs": [],
      "name": "setMarried",
      "outputs": [],
      "stateMutability": "nonpayable",
      "type": "function"
    },
    {
      "inputs": [],
      "name": "getMarried",
      "outputs": [
        {
          "internalType": "bool",
          "name": "",
          "type": "bool"
        }
      ],
      "stateMutability": "view",
      "type": "function",
      "constant": true
    }
  ],
  "bytecode": "0x608060405234801561001057600080fd5b5060405161054638038061054683398181016040528101906100329190610138565b816000806101000a81548173ffffffffffffffffffffffffffffffffffffffff021916908373ffffffffffffffffffffffffffffffffffffffff16021790555080600160006101000a81548173ffffffffffffffffffffffffffffffffffffffff021916908373ffffffffffffffffffffffffffffffffffffffff1602179055506000600160146101000a81548160ff0219169083151502179055505050610178565b600080fd5b600073ffffffffffffffffffffffffffffffffffffffff82169050919050565b6000610105826100da565b9050919050565b610115816100fa565b811461012057600080fd5b50565b6000815190506101328161010c565b92915050565b6000806040838503121561014f5761014e6100d5565b5b600061015d85828601610123565b925050602061016e85828601610123565b9150509250929050565b6103bf806101876000396000f3fe608060405234801561001057600080fd5b50600436106100575760003560e01c80632aebce421461005c57806353605f48146100665780639214b64414610084578063c0934105146100a2578063fb6a90f8146100c0575b600080fd5b6100646100de565b005b61006e6101e0565b60405161007b9190610295565b60405180910390f35b61008c610206565b60405161009991906102cb565b60405180910390f35b6100aa610219565b6040516100b791906102cb565b60405180910390f35b6100c8610230565b6040516100d59190610295565b60405180910390f35b60008054906101000a900473ffffffffffffffffffffffffffffffffffffffff1673ffffffffffffffffffffffffffffffffffffffff163373ffffffffffffffffffffffffffffffffffffffff1614806101855750600160009054906101000a900473ffffffffffffffffffffffffffffffffffffffff1673ffffffffffffffffffffffffffffffffffffffff163373ffffffffffffffffffffffffffffffffffffffff16145b6101c4576040517f08c379a00000000000000000000000000000000000000000000000000000000081526004016101bb90610369565b60405180910390fd5b60018060146101000a81548160ff021916908315150217905550565b600160009054906101000a900473ffffffffffffffffffffffffffffffffffffffff1681565b600160149054906101000a900460ff1681565b6000600160149054906101000a900460ff16905090565b60008054906101000a900473ffffffffffffffffffffffffffffffffffffffff1681565b600073ffffffffffffffffffffffffffffffffffffffff82169050919050565b600061027f82610254565b9050919050565b61028f81610274565b82525050565b60006020820190506102aa6000830184610286565b92915050565b60008115159050919050565b6102c5816102b0565b82525050565b60006020820190506102e060008301846102bc565b92915050565b600082825260208201905092915050565b7f4f6e6c792073706f757365732063616e2063616c6c20746869732066756e637460008201527f696f6e0000000000000000000000000000000000000000000000000000000000602082015250565b60006103536023836102e6565b915061035e826102f7565b604082019050919050565b6000602082019050818103600083015261038281610346565b905091905056fea2646970667358221220f3fab03185ab1a81c30e4aed2e4fc8549dfb108834127e3744a2ce27aa47112564736f6c634300080d0033",
  "immutableReferences": {},
  "source": "// SPDX-License-Identifier: MIT\r\npragma solidity ^0.8.0;\r\n\r\ncontract MarriageContract {\r\n    address public spouse1;\r\n    address public spouse2;\r\n    bool public married;\r\n\r\n    constructor(address _spouse1, address _spouse2) {\r\n        spouse1 = _spouse1;\r\n        spouse2 = _spouse2;\r\n        married = false;\r\n    }\r\n\r\n    function setMarried() external {\r\n        require(msg.sender == spouse1 || msg.sender == spouse2, \"Only spouses can call this function\");\r\n        married = true;\r\n    }\r\n\r\n    function getMarried() external view returns(bool) {\r\n        return married;\r\n    }\r\n}",
  "sourcePath": "C:\\Users\\admin\\Documents\\Blockchain\\metacoin\\contracts\\MarriageContract.sol",
  "compiler": {
    "name": "solc",
    "version": "0.8.13+commit.abaa5c0e.Emscripten.clang"
  },
  "schemaVersion": "3.4.15",
  "updatedAt": "2023-08-24T12:26:21.617Z",
  "networkType": "ethereum",
  "devdoc": {
    "kind": "dev",
    "methods": {},
    "version": 1
  },
  "userdoc": {
    "kind": "user",
    "methods": {},
    "version": 1
  }
}